:020000040800F2
:10000000005000209D2A0008B51F0008B71F0008F7
:10001000B91F0008BB1F0008BD1F0008000000003A
:10002000000000000000000000000000BF1F0008EA
:10003000C11F000800000000C31F0008C51F000802
:10004000E52A0008E52A0008E52A0008E52A000854
:10005000E52A0008E52A0008E52A0008E52A000844
:10006000E52A0008D11F0008D1200008E52A000871
:10007000E52A0008E52A0008E52A0008E52A000824
:10008000E52A0008E52A0008E52A0008E52A000814
:10009000E52A0008E52A0008E52A000809210008E9
:1000A000E52A0008F1230008E52A0008E52A0008EF
:1000B000E52A0008E52A0008E52A0008E52A0008E4
:1000C000E52A0008E52A0008E52A0008E52A0008D4
:1000D000E52A0008E52A0008E52A0008E52A0008C4
:1000E00029240008E52A0008E52A0008000000008D
:1000F0000000000000000000000000000000000000
:0C01000000000000000000005FF808F1A3
:1001100081F0004102E000BF83F0004330B54FEAB8
:1001200041044FEA430594EA050F08BF90EA020F25
:100130001FBF54EA000C55EA020C7FEA645C7FEAB8
:10014000655C00F0E2804FEA5454D4EB5555B8BFDB
:100150006D420CDD2C4480EA020281EA030382EA4C
:10016000000083EA010180EA020281EA0303362DDE
:1001700088BF30BD11F0004F4FEA01314FF4801CB1
:100180004CEA113102D0404261EB410113F0004FC3
:100190004FEA03334CEA133302D0524263EB43037A
:1001A00094EA050F00F0A780A4F10104D5F1200E18
:1001B0000DDB02FA0EFC22FA05F2801841F1000173
:1001C00003FA0EF2801843FA05F359410EE0A5F147
:1001D00020050EF1200E012A03FA0EFC28BF4CF078
:1001E000020C43FA05F3C01851EBE37101F000452E
:1001F00007D54FF0000EDCF1000C7EEB00006EEB3B
:100200000101B1F5801F1BD3B1F5001F0CD34908C4
:100210005FEA30004FEA3C0C04F101044FEA44521B
:1002200012F5800F80F09A80BCF1004F08BF5FEAA2
:10023000500C50F1000041EB045141EA050130BD82
:100240005FEA4C0C404141EB0101013C28BFB1F594
:10025000801FE9D291F0000F04BF01460020B1FADF
:1002600081F308BF2033A3F10B03B3F120020CDAB2
:100270000C3208DD02F1140CC2F10C0201FA0CF090
:1002800021FA02F10CE002F11402D8BFC2F1200CF5
:1002900001FA02F120FA0CFCDCBF41EA0C019040AB
:1002A000E41AA2BF01EB0451294330BD6FEA0404F4
:1002B0001F3C1CDA0C340EDC04F11404C4F12002DF
:1002C00020FA04F001FA02F340EA030021FA04F3F1
:1002D00045EA030130BDC4F10C04C4F1200220FA48
:1002E00002F001FA04F340EA0300294630BD21FA86
:1002F00004F0294630BD94F0000F83F4801306BF4C
:1003000081F480110134013D4EE77FEA645C18BF3F
:100310007FEA655C29D094EA050F08BF90EA020FD6
:1003200005D054EA000C04BF1946104630BD91EACE
:10033000030F1EBF0021002030BD5FEA545C05D1D1
:100340004000494128BF41F0004130BD14F5800410
:100350003CBF01F5801130BD01F0004545F0FE4184
:1003600041F470014FF0000030BD7FEA645C1ABFB9
:10037000194610467FEA655C1CBF0B46024650EAF0
:10038000013406BF52EA033591EA030F41F400211C
:1003900030BD00BF90F0000F04BF0021704730B5A2
:1003A0004FF4806404F132044FF000054FF0000177
:1003B00050E700BF90F0000F04BF0021704730B538
:1003C0004FF4806404F1320410F0004548BF40420D
:1003D0004FF000013EE700BF42004FEAE2014FEA62
:1003E00031014FEA02701FBF12F07F4393F07F4F3D
:1003F00081F06051704732F07F4208BF704793F040
:100400007F4F04BF41F40021704730B54FF4607452
:1004100001F0004521F000411CE700BF50EA010255
:1004200008BF704730B54FF000050AE050EA0102FE
:1004300008BF704730B511F0004502D5404261EB6E
:1004400041014FF4806404F132045FEA915C3FF4AF
:10045000D8AE4FF003025FEADC0C18BF03325FEA4C
:10046000DC0C18BF033202EBDC02C2F1200300FAFD
:1004700003FC20FA02F001FA03FE40EA0E0021FA22
:1004800002F11444BDE600BF4A0011D212F5001279
:1004900011D20DD56FF47873B3EB62520ED44FEADC
:1004A000C12343F0004343EA505323FA02F070475C
:1004B0004FF00000704750EA013002D14FF0FF309A
:1004C00070474FF00000704780F0004002E000BF2E
:1004D00081F0004142001FBF5FEA410392EA030F2F
:1004E0007FEA226C7FEA236C6AD04FEA1262D2EB79
:1004F0001363C1BFD218414048404140B8BF5B427E
:10050000192B88BF704710F0004F40F4000020F016
:100510007F4018BF404211F0004F41F4000121F02C
:100520007F4118BF494292EA030F3FD0A2F1010276
:1005300041FA03FC10EB0C00C3F1200301FA03F1B4
:1005400000F0004302D5494260EB4000B0F5000FD7
:1005500013D3B0F1807F06D340084FEA310102F196
:100560000102FE2A51D2B1F1004F40EBC25008BF48
:1005700020F0010040EA03007047490040EB000012
:10058000013A28BFB0F5000FEDD2B0FA80FCACF113
:10059000080CB2EB0C0200FA0CF0AABF00EBC25040
:1005A00052421843BCBFD0401843704792F0000F2E
:1005B00081F4000106BF80F400000132013BB5E781
:1005C0004FEA41037FEA226C18BF7FEA236C21D0F7
:1005D00092EA030F04D092F0000F08BF084670475C
:1005E00090EA010F1CBF0020704712F07F4F04D12A
:1005F000400028BF40F00040704712F100723CBF3D
:1006000000F50000704700F0004343F0FE4040F466
:10061000000070477FEA226216BF08467FEA236324
:100620000146420206BF5FEA412390EA010F40F40F
:10063000800070474FF0000304E000BF10F000435B
:1006400048BF40425FEA000C08BF704743F0964342
:1006500001464FF000001CE050EA010208BF70475D
:100660004FF000030AE000BF50EA010208BF7047E4
:1006700011F0004302D5404261EB41015FEA010CF9
:1006800002BF84460146002043F0B64308BFA3F1F1
:100690008053A3F50003BCFA8CF2083AA3EBC253D3
:1006A00010DB01FA02FC634400FA02FCC2F12002F2
:1006B000BCF1004F20FA02F243EB020008BF20F029
:1006C0000100704702F1200201FA02FCC2F120028F
:1006D00050EA4C0021FA02F243EB020008BF20EA84
:1006E000DC7070474FF0FF0C1CEAD0521EBF1CEAB2
:1006F000D15392EA0C0F93EA0C0F6FD01A4480EAA0
:10070000010C400218BF5FEA41211ED04FF0006388
:1007100043EA501043EA5111A0FB01310CF00040B4
:10072000B1F5000F3EBF490041EAD3715B0040EADA
:10073000010062F17F02FD2A1DD8B3F1004F40EBAA
:10074000C25008BF20F00100704790F0000F0CF07D
:10075000004C08BF49024CEA502040EA51207F3A41
:10076000C2BFD2F1FF0340EAC250704740F400001C
:100770004FF00003013A5DDC12F1190FDCBF00F00D
:1007800000407047C2F10002410021FA02F1C2F1BB
:10079000200200FA02FC5FEA310040F1000053EA57
:1007A0004C0308BF20EADC70704792F0000F00F0A5
:1007B000004C02BF400010F4000F013AF9D040EAAB
:1007C0000C0093F0000F01F0004C02BF490011F43F
:1007D000000F013BF9D041EA0C018FE70CEAD1533D
:1007E00092EA0C0F18BF93EA0C0F0AD030F0004CBD
:1007F00018BF31F0004CD8D180EA010000F0004071
:10080000704790F0000F17BF90F0004F084691F02E
:10081000000F91F0004F14D092EA0C0F01D1420268
:100820000FD193EA0C0F03D14B0218BF084608D131
:1008300080EA010000F0004040F0FE4040F400007B
:10084000704740F0FE4040F4400070474FF0FF0C0E
:100850001CEAD0521EBF1CEAD15392EA0C0F93EA55
:100860000C0F69D0A2EB030280EA010C49024FEAA7
:10087000402037D04FF0805343EA111143EA101360
:100880000CF000408B4238BF5B0042F17D024FF418
:10089000000C8B4224BF5B1A40EA0C00B3EB510FF3
:1008A00024BFA3EB510340EA5C00B3EB910F24BFDC
:1008B000A3EB910340EA9C00B3EBD10F24BFA3EB61
:1008C000D10340EADC001B0118BF5FEA1C1CE0D129
:1008D000FD2A3FF650AF8B4240EBC25008BF20F0DC
:1008E000010070470CF0004C4CEA50207F32C2BF30
:1008F000D2F1FF0340EAC250704740F400004FF0CD
:100900000003013A37E792F0000F00F0004C02BFFD
:10091000400010F4000F013AF9D040EA0C0093F0C7
:10092000000F01F0004C02BF490011F4000F013B21
:10093000F9D041EA0C0195E70CEAD15392EA0C0F89
:1009400008D142027FF47DAF93EA0C0F7FF470AFC1
:10095000084676E793EA0C0F04D14B023FF44CAF04
:1009600008466EE730F0004C18BF31F0004CCAD199
:1009700030F000427FF45CAF31F000437FF43CAFD5
:100980005FE700BF4FEA4002B2F1FE4F0FD34FF0D6
:100990009E03B3EB12620DD94FEA002343F00043EC
:1009A00010F0004F23FA02F018BF404270474FF09A
:1009B0000000704712F1610F01D1420205D110F021
:1009C000004008BF6FF0004070474FF000007047D4
:1009D00070B54FF0FF0C4CF4E06C1CEA11541DBFD5
:1009E0001CEA135594EA0C0F95EA0C0F00F0DEF8A0
:1009F0002C4481EA030621EA4C5123EA4C5350EA85
:100A0000013518BF52EA033541F4801143F48013D5
:100A100038D0A0FB02CE4FF00005E1FB02E506F066
:100A20000042E0FB03E54FF00006E1FB03569CF0BB
:100A3000000F18BF4EF0010EA4F1FF04B6F5007FC1
:100A400064F5407404D25FEA4E0E6D4146EB060633
:100A500042EAC62141EA55514FEAC52040EA5E50BC
:100A60004FEACE2EB4F1FD0C88BFBCF5E06F1ED866
:100A7000BEF1004F08BF5FEA500E50F1000041EB9D
:100A8000045170BD06F0004646EA010140EA02004A
:100A900081EA0301B4EB5C04C2BFD4EB0C0541EA6C
:100AA000045170BD41F480114FF0000E013C00F381
:100AB000AB8014F1360FDEBF002001F0004170BDA5
:100AC000C4F10004203C35DA0C341BDC04F11404BE
:100AD000C4F1200500FA05F320FA04F001FA05F24A
:100AE00040EA020001F0004221F0004110EBD37017
:100AF00021FA04F642EB06015EEA430E08BF20EA43
:100B0000D37070BDC4F10C04C4F1200500FA04F3E5
:100B100020FA05F001FA04F240EA020001F0004177
:100B200010EBD37041F100015EEA430E08BF20EAEA
:100B3000D37070BDC4F1200500FA05F24EEA020E32
:100B400020FA04F301FA05F243EA020321FA04F061
:100B500001F0004121FA04F220EA020000EBD37018
:100B60005EEA430E08BF20EAD37070BD94F0000F18
:100B70000FD101F00046400041EB010111F4801F4C
:100B800008BF013CF7D041EA060195F0000F18BFFD
:100B9000704703F00046520043EB030313F4801F39
:100BA00008BF013DF7D043EA0603704794EA0C0FF3
:100BB0000CEA135518BF95EA0C0F0CD050EA410609
:100BC00018BF52EA4306D1D181EA030101F0004186
:100BD0004FF0000070BD50EA410606BF10461946AE
:100BE00052EA430619D094EA0C0F02D150EA0136BA
:100BF00013D195EA0C0F05D152EA03361CBF1046FB
:100C000019460AD181EA030101F0004141F0FE4199
:100C100041F470014FF0000070BD41F0FE4141F41D
:100C2000780170BD70B54FF0FF0C4CF4E06C1CEA1D
:100C300011541DBF1CEA135594EA0C0F95EA0C0FD2
:100C400000F0A7F8A4EB050481EA030E52EA03358D
:100C50004FEA013100F088804FEA03334FF08055AE
:100C600045EA131343EA12634FEA022245EA1115DB
:100C700045EA10654FEA00260EF000419D4208BF8C
:100C8000964244F1FD0404F5407402D25B084FEA39
:100C90003202B61A65EB03055B084FEA32024FF4E5
:100CA00080104FF4002CB6EB020E75EB030E22BF42
:100CB000B61A754640EA0C005B084FEA3202B6EB02
:100CC000020E75EB030E22BFB61A754640EA5C00B1
:100CD0005B084FEA3202B6EB020E75EB030E22BF41
:100CE000B61A754640EA9C005B084FEA3202B6EB42
:100CF000020E75EB030E22BFB61A754640EADC0001
:100D000055EA060E18D04FEA051545EA16754FEA62
:100D100006164FEAC30343EA52734FEAC2025FEA80
:100D20001C1CC0D111F4801F0BD141EA00014FF00F
:100D300000004FF0004CB6E711F4801F04BF0143E0
:100D40000020B4F1FD0C88BFBCF5E06F3FF6AFAEFC
:100D5000B5EB030C04BFB6EB020C5FEA500C50F18C
:100D6000000041EB045170BD0EF0004E4EEA11310F
:100D700014EB5C04C2BFD4EB0C0541EA045170BD16
:100D800041F480114FF0000E013C90E645EA060E5A
:100D90008DE60CEA135594EA0C0F08BF95EA0C0F88
:100DA0003FF43BAF94EA0C0F0AD150EA01347FF4D0
:100DB00034AF95EA0C0F7FF425AF104619462CE7A7
:100DC00095EA0C0F06D152EA03353FF4FDAE10460A
:100DD000194622E750EA410618BF52EA43067FF45B
:100DE000C5AE50EA41047FF40DAF52EA43057FF4EB
:100DF000EBAE12E74FF0FF3C06E000BF4FF0010CF6
:100E000002E000BF4FF0010C4DF804CD4FEA410C59
:100E10007FEA6C5C4FEA430C18BF7FEA6C5C1BD026
:100E200001B050EA410C0CBF52EA430C91EA030FA7
:100E300002BF90EA020F0020704710F1000F91EA04
:100E4000030F58BF994208BF90422CBFD8176FEAD2
:100E5000E37040F0010070474FEA410C7FEA6C5CA0
:100E600002D150EA013C07D14FEA430C7FEA6C5CA7
:100E7000D6D152EA033CD3D05DF8040B704700BFD3
:100E80008446104662468C461946634600E000BF21
:100E900001B5FFF7B7FF002848BF10F1000F01BDF3
:100EA0004DF808EDFFF7F4FF0CBF012000205DF8BE
:100EB00008FB00BF4DF808EDFFF7EAFF34BF012043
:100EC00000205DF808FB00BF4DF808EDFFF7E0FFDC
:100ED00094BF012000205DF808FB00BF4DF808ED2D
:100EE000FFF7CEFF94BF012000205DF808FB00BF94
:100EF0004DF808EDFFF7C4FF34BF012000205DF876
:100F000008FB00BF4FEA410C7FEA6C5C02D150EA5B
:100F1000013C0AD14FEA430C7FEA6C5C02D152EAF1
:100F2000033C02D14FF0000070474FF001007047C2
:100F30000348044B834202D0034B03B11847704768
:100F40009401002094010020000000000548064B99
:100F50001B1AD90F01EBA301491002D0034B03B1B7
:100F60001847704794010020940100200000000001
:100F700010B5064C237843B9FFF7DAFF044B13B1E1
:100F80000448AFF300800123237010BD94010020BA
:100F900000000000A052000808B5054B1BB1054930
:100FA0000548AFF30080BDE80840FFF7CFBF00BFA2
:100FB0000000000098010020A052000810B592B077
:100FC000154B9A6942F400729A619A6902F40072B0
:100FD0000092009A9A6942F004029A619B6903F0B8
:100FE00004030193019B0E9003230F93002410949C
:100FF0000EA90A4801F09EFF094B029304948DF854
:1010000014404FF46023099303940123069302A82C
:1010100001F094FE12B010BD001002400008014023
:101020000024014082B0019010E04FF4617014E0A0
:1010300001F58C3101F5A0714FF0E0239B699A42D4
:10104000FADA9942F8DB019B1B1A0193019BABB1C1
:10105000019BB3F5617FE8D801984FF0E0239A69CE
:101060006FF0470101FB00210029E1DB4FF0E02395
:101070009B699A42E7DD9942F8DDE4E702B07047E8
:10108000F0B587B0254B9A6942F008029A619A69D7
:1010900002F008020092009A9A6942F400629A6192
:1010A0009B6903F400630193019B00240294039461
:1010B000049405944FF48067029701260396032356
:1010C0000593174D02A9284601F034FF2246394600
:1010D000284602F044F84FF4006302930394049608
:1010E00002A9284601F026FF0E4D0F4B2B60472327
:1010F0006B60AC6040F2E733EB602C616C61AC611B
:10110000284602F0F9FD2B685C626FF001021A615B
:10111000284602F0ADFC07B0F0BD00BF0010024051
:10112000000C014088020020002C014008B5044852
:10113000026800235362034A137002F099FC08BD51
:1011400088020020B001002010B5084B1A78084B27
:101150001B685C6A4FF47A7101FB024400225A62F8
:101160000A2001F00BFD204610BD00BFB001002099
:101170008802002008B5024802F0AEFC08BD00BF9E
:101180008802002070B5002500242EE01B4E0122AD
:101190004FF48061304601F0E2FF1420FFF742FF78
:1011A00000224FF48061304601F0D9FF4FF4006116
:1011B000124801F0CDFF0028F8D0FFF7B7FF013546
:1011C0004FF400610D4801F0C3FF0128F8D0FFF78C
:1011D000D1FFFFF7B9FFFFF72DFA0949FFF736FBFB
:1011E00001462046FFF776F904460A2DCED105497F
:1011F0002046FFF72BFB044B186070BD000C01402C
:101200000000684200002041F401002000B587B0D2
:101210000D4B9A6942F004029A619B6903F0040342
:101220000193019B02230293002303930123049360
:101230000323059302A9054801F07CFE2820FFF74F
:10124000BDFE07B05DF804FB00100240000801403D
:1012500000B587B00B4B9A6942F004029A619B6912
:1012600003F004030193019B0290002303930223E4
:101270000493059302A9044801F05CFE07B05DF8F1
:1012800004FB00BF001002400008014000B587B019
:101290000B4B9A6942F008029A619B6903F00803BC
:1012A0000193019B0290002303930223049305936F
:1012B00002A9044801F03EFE07B05DF804FB00BF40
:1012C00000100240000C014070B586B004460E4B81
:1012D0009A6942F004029A619B6903F00403019346
:1012E000019B029001260396002304930323059398
:1012F000064D02A9284601F01DFE32462146284629
:1013000001F02DFF06B070BD001002400008014042
:1013100070B586B0154B9A6942F008029A619A69D5
:1013200002F008020092009A9A6942F004029A615F
:101330009B6903F004030193019B4FF4C073029374
:1013400001260396002504950324059402A9084864
:1013500001F0F0FD4FF400430293039604950594C9
:1013600002A9044801F0E6FD06B070BD001002407D
:10137000000C01400008014038B5044600228021DD
:10138000134801F0ECFE08250FE000224FF4004165
:10139000104801F0E4FE6400E4B201224FF48071D1
:1013A0000B4801F0DCFE013DEDB27DB100224FF4AF
:1013B0008071074801F0D3FE14F0800FE5D00122C0
:1013C0004FF40041034801F0CAFEE4E738BD00BF16
:1013D000000C01400008014038B505460C460022CB
:1013E00080210A4801F0BBFE2846FFF7C5FF0A2C02
:1013F00008D02046FFF7C0FF01228021034801F0FA
:10140000AEFE38BD8020FFF7B7FFF5E7000C0140C6
:1014100008B5FFF77DFFFF210920FFF7DDFF03215E
:101420000A20FFF7D9FF07210B20FFF7D5FF012185
:101430000C20FFF7D1FF01210F20FFF7CDFF08BDE2
:1014400070B586B0154B9A6942F010029A619B699B
:1014500003F010030193019B4FF480450295112383
:10146000039300230493032305930D4C02A9204604
:1014700001F060FD4FF40046029602A9204601F0FB
:1014800059FD01223146204601F069FE012229461C
:10149000204601F064FE06B070BD00BF001002409F
:1014A0000010014010B50D4C01224FF48041204640
:1014B00001F055FE01224FF40041204601F04FFE9D
:1014C00000224FF48041204601F049FE00224FF4F3
:1014D0000041204601F043FE10BD00BF0010014056
:1014E00010B50A4C00224FF48041204601F037FE2F
:1014F00001224FF40041204601F031FE01224FF459
:101500008041204601F02BFE10BD00BF00100140BD
:1015100070B50646002419E0802323411E42134D76
:1015200014BF012200224FF48041284601F017FE2B
:1015300001224FF40041284601F011FE00224FF431
:101540000041284601F00BFE0134E4B2072CE3D938
:10155000064C01224FF40041204601F000FE00221B
:101560004FF40041204601F0FAFD70BD001001402B
:1015700010B50446FFF796FF7820FFF7C9FF00205B
:10158000FFF7C6FF2046FFF7C3FFFFF7A9FF10BD17
:1015900010B50446FFF786FF7820FFF7B9FF40201B
:1015A000FFF7B6FF2046FFF7B3FFFFF799FF10BD27
:1015B00010B50C4640F0B000FFF7DAFF200940F00C
:1015C0001000FFF7D5FF04F00F00FFF7D1FF10BDAB
:1015D00038B5002509E00020FFF7DAFF0134E4B256
:1015E00014F0800FF7D00135EDB2072D05D800219A
:1015F0002846FFF7DDFF0024F2E738BD08B50022DA
:1016000004E00133B3F57A7FFBD30132B2F57A7F80
:1016100001D20023F6E7FFF713FFAE20FFF7A8FF84
:10162000D520FFF7A5FF8020FFF7A2FFA820FFF736
:101630009FFF3F20FFF79CFFD320FFF799FF00207B
:10164000FFF796FF4020FFF793FFA120FFF790FFE1
:10165000C820FFF78DFFDA20FFF78AFF1220FFF77F
:1016600087FF8120FFF784FFCF20FFF781FFD9207C
:10167000FFF77EFFF120FFF77BFFDB20FFF778FF0E
:101680003020FFF775FFA420FFF772FFA620FFF7B9
:101690006FFF8D20FFF76CFF1420FFF769FFAF206D
:1016A000FFF766FFFFF794FF08BD000010B5A0B07C
:1016B000204BDA6942F00102DA61DA6902F00102D4
:1016C0000192019A9A6942F004029A619B6903F0BF
:1016D00004030293029B01231C9302231D93002405
:1016E0001E9403231F931CA9134801F023FC4FF001
:1016F00080430A9340F2CF230B930C9463230D9302
:101700000E940F94802310930AA802F021FB60230B
:101710000393049405940794224603A90AA802F0AF
:1017200071FB064802F076F921460AA802F072FC25
:1017300020B010BD0010024000080140400200200F
:1017400030B5A1B01F4BDA6942F00202DA61DA6902
:1017500002F002020192019A9A6942F004029A612F
:101760009B6903F004030293029B80251C950223CE
:101770001D9300241E941F931CA9134801F0DAFB4B
:10178000124B0A9340F2CF230B930C9463230D93D7
:101790000E940F9410950AA802F0DAFA60230393CE
:1017A000049405940794042203A90AA802F02AFBD2
:1017B000074802F02FF904210AA802F02BFC21B0FF
:1017C00030BD00BF0010024000080140000400408E
:1017D000F8010020014B1B6858637047400200204D
:1017E000014B1B6898637047F801002010B5094B46
:1017F00093FBF0F39BB2013B9BB2074C22689362D0
:101800009362204602F006F90021204602F002FC15
:1018100010BD00BF80FC0A004002002010B5094B3B
:1018200093FBF0F39BB2013B9BB2074C226893629F
:101830009362204602F0EEF80421204602F0EAFB13
:1018400010BD00BF80FC0A00F801002008B5FFF7BA
:101850002DFFFFF775FF08BD08B520B1012808D09E
:1018600002280AD008BDFFF7B5FF0020FFF7B8FF38
:10187000F8E70020FFF7AEFFF4E70020FFF7B0FF26
:10188000F0E738B5F0B10C4605464AB1012A13D04D
:10189000022A1AD1FFF7C2FF2046FFF7A1FF14E08A
:1018A000FFF7A4FF2846FFF7B9FF2046FFF792FF96
:1018B0002046FFF795FF08E0FFF798FF2046FFF767
:1018C00089FF02E01046FFF7C7FF38BD38B50D4667
:1018D00011461C461A46FFF7D4FF284601F04EF980
:1018E0002046FFF7B9FF38BD08B520B1012810D058
:1018F000022816D008BD0120FFF778FF0120FFF76E
:101900008DFF0C4B1A68332353620B4A12685362E3
:10191000F0E70120FFF76AFF064B1B6833225A628B
:10192000E8E70120FFF77AFF034B1B6833225A6276
:10193000E0E700BF40020020F801002010B560B1D0
:1019400004460220FFF7D0FF092C09D8DFE804F095
:101950000509102B334D6073767E1E2001F00EF9C1
:1019600010BD022332221E215020FFF7AFFFF7E700
:1019700000240E2C13DC022232214FF41670FFF7E4
:1019800080FF012001F0FAF802221E214FF4966038
:10199000FFF777FF012001F0F1F80134E9E70220B9
:1019A000FFF75AFFDCE702230A221E2140F6B83077
:1019B000FFF78CFFD4E702220A2140F6B830FFF788
:1019C00060FF1E2001F0DAF8CAE702223221A0B23D
:1019D000FFF757FF012001F0D1F8013CB4F5EB7F90
:1019E000F3DC0220FFF738FFBAE74FF4FA74F5E7AB
:1019F00002223221A0B2FFF744FF012001F0BEF81D
:101A0000013CB4F5B97FF3DC0220FFF725FFA7E71F
:101A10004FF4C874F5E702223221A0B2FFF731FF7C
:101A2000012001F0ABF8013CB4F5877FF3DC022024
:101A3000FFF712FF94E74FF49674F5E702230A22AA
:101A40001E214FF46170FFF741FF89E702230A224C
:101A50001E214FF41670FFF739FF81E708B5002209
:101A60000421024801F07BFB08BD00BF000C0140CF
:101A700008B501220421024801F071FB08BD00BF36
:101A8000000C014038B54FF4AF7303FB00F00D4B71
:101A900083FB0023C517C5EB631541F287339842DA
:101AA00000DC322500240AE0FFF7D8FF284601F0C9
:101AB00065F8FFF7DDFF284601F060F80134042CDB
:101AC000F2DD38BD1F85EB5100B585B000230193D1
:101AD000029303931148124A0260836003730375F3
:101AE0004FF46022C26143600123036101F026F9D3
:101AF00068B903230193012302930023039301A9EF
:101B0000064801F04FF828B905B05DF804FB00F075
:101B100025F9EEE700F022F9F6E700BFB401002056
:101B20000024014000B587B000230293039304937F
:101B300005930268114B9A4202D007B05DF804FB8E
:101B400003F56C439A6942F400729A619A6902F44F
:101B500000720092009A9A6942F004029A619B69AD
:101B600003F004030193019B2823029303230393AF
:101B700002A9034801F0DEF9DFE700BF00240140BD
:101B8000000801402DE9F04389B000240494059435
:101B9000069407946B4B9A6942F010029A619A6915
:101BA00002F010020092009A9A6942F020029A61B3
:101BB0009A6902F020020192019A9A6942F00402A5
:101BC0009A619A6902F004020292029A9A6942F0BA
:101BD00008029A619B6903F008030393039B5A4F21
:101BE00022464FF44041384601F0B9FA574E22469A
:101BF00040F28451304601F0B2FADFF854912246A7
:101C00004FF40041484601F0AAFA4FF440430493D0
:101C10001125059506944FF00308CDF81C8004A902
:101C2000384601F087F940F2022304930227059712
:101C3000079704A9484601F07DF9CDF81080059773
:101C4000079704A9304601F075F90423049305951C
:101C500001250695079704A9304601F06BF94FF46A
:101C60008063049305950694079704A9304601F014
:101C700061F94FF4006304930594069404A9304677
:101C800001F058F94FF248230493324F0597069517
:101C900004A9304601F04EF94FF4506304930597C0
:101CA000069504A9484601F045F94FF40043049312
:101CB00005950694CDF81C8004A9484601F03AF930
:101CC00030230493244B0593069504A9304601F074
:101CD00031F94FF4C073049305950694CDF81C8038
:101CE00004A9304601F026F90921204601F04CFAFA
:101CF0002946102001F048FA01F050FA2246214608
:101D0000092001F0E5F8092001F0F2F82246214609
:101D10000A2001F0DDF80A2001F0EAF82246214607
:101D2000172001F0D5F8172001F0E2F822462146ED
:101D3000282001F0CDF8282001F0DAF809B0BDE83C
:101D4000F08300BF0010024000100140000C014071
:101D500000080140000031100000211072B6FEE7BB
:101D600000B595B0282200210DEB020002F0F8F931
:101D70000023059306930793089309930193029315
:101D80000393049301220A924FF480330B930E9233
:101D90000222119212934FF4E01313930AA801F058
:101DA0001BFAC8B90F23059302210691002307935C
:101DB0004FF480620892099305A801F03FFC68B9CE
:101DC000022301934FF40043039301A801F0ECFCBC
:101DD00030B915B05DF804FBFFF7C0FFFFF7BEFF99
:101DE000FFF7BCFF08B500F0A5FEFFF749F9FFF7C4
:101DF0000FFBFFF703FCFFF7B3FF5420FFF764FA74
:101E00004FF4C060FFF724FA4FF44040FFF73EFA6A
:101E1000FFF71CFDFFF7FAF9FFF7B4FE00F0D6FC60
:101E200000F08CFD00F0E0FDFFF74EFE01220421E2
:101E3000464801F094F943E0454B63221A60454B54
:101E400000221A60424D2968434C84FB0123C917C4
:101E5000C1EBA301C9B20520FFF7BEFA2B6884FBD2
:101E60000312D917C1EBA20101EB8101A3EB4101E0
:101E700061F07F01C9B20620FFF7AEFA354D29683F
:101E800084FB0123C917C1EBA301C9B20720FFF7E7
:101E9000A3FA2B6884FB0324D917C1EBA40101EB3F
:101EA0008101A3EB4101C9B20820FFF795FA2B4B42
:101EB0001B68642202FB03F3294A126893423EDA4C
:101EC000264D2968244C84FB0123C917C1EBA301CB
:101ED000C9B20120FFF780FA2B6884FB0324D917CD
:101EE000C1EBA40101EB8101A3EB4101C9B20220C6
:101EF000FFF772FA0F210320FFF76EFA0F2104207B
:101F0000FFF76AFAFFF73EF9164B18601649FEF71D
:101F1000E9FBFEF737FD124B1860144A82FB0032D2
:101F2000C317C3EB62130A4A1360642202FB130354
:101F3000084A136042F20F73984283DD7CE7094B35
:101F40001868FEF71FFDFFF79DFDB9E7000C014083
:101F5000EC010020E801002067666666580000205A
:101F6000F0010020F40100200000C8421F85EB5161
:101F700082B00E4B9A6942F001029A619A6902F0AE
:101F800001020092009ADA6942F08052DA61DB695C
:101F900003F080530193019B054A536823F0E063EB
:101FA00043F00073536002B0704700BF001002405E
:101FB00000000140FEE7FEE7FEE7FEE7FEE77047B0
:101FC0007047704708B500F0C7FD08BD000000006D
:101FD00070B5354B5B6913F0080F03D1082001F091
:101FE000C5F870BD0821314801F0B2F8002850D181
:101FF0002F4B1B78062B45D00120FFF775FC2D4B8E
:102000001B7804332C4A32F813602C4B1A782C4B73
:1020100033F8123003FB06F62A4B1878FEF7BAF9AC
:1020200002460B4600204FF0804102F07FF9044643
:102030000D463046FEF7BEF922462B46FEF7C8FC99
:1020400004460D46204B1878FEF7A4F902460B46CD
:1020500013A1D1E9000102F069F902460B462046BE
:102060002946FEF7B5FCFEF70FFA114B1B78013B32
:1020700001221649C95C80B2FFF703FC0A4B082213
:102080005A61ABE70520FFF759FC462000F076FDCA
:10209000F4E70120FFF7E0FBF0E700BFAFF30080BB
:1020A000F6285C8FC2F5F03F00040140000C0140AF
:1020B0005600002054000020380000205500002069
:1020C0000800002053000020E5010020000000204F
:1020D00008B50A4B5B6913F0100F0BD0084A136860
:1020E00001331360632B02DD134663221A60034B36
:1020F00010225A61102001F039F808BD0004014097
:10210000580000200000000070B5AD4B5B6913F073
:10211000200F08D0AB4A1368013B1360002B21DB72
:10212000A74B20225A61A64B5B6913F4807F1DD117
:10213000A34B5B6913F0400F75D1A14B5B6913F49E
:10214000007F40F0D380202001F010F8402001F003
:102150000DF84FF4807001F009F84FF4007001F0B1
:1021600005F870BD134600221A60D9E74FF480715C
:10217000954800F0EDFF002851D1944B1B78062BB9
:1021800046D00120FFF7B0FB914B1B780233914AF8
:1021900032F81360904B1A78904B33F8123003FBEF
:1021A00006F68F4B1878FEF7F5F802460B4600202E
:1021B0004FF0804102F0BAF804460D463046FEF773
:1021C000F9F822462B46FEF703FC04460D46854BE4
:1021D0001878FEF7DFF802460B4677A1D1E9000137
:1021E00002F0A4F802460B4620462946FEF7F0FB13
:1021F000FEF74AF9754B1B78013B01227A49C95C0D
:1022000080B2FFF73EFB6E4B4FF480725A618FE74E
:102210000320FFF793FB462000F0B0FCF3E701201A
:10222000FFF71AFBEFE74021704800F091FF00280C
:1022300058D1664B1B78062B11D16A4B1B78012BAA
:1022400009D00620FFF77AFB462000F097FC5C4B94
:1022500040225A6171E70820FFF770FBF4E7012084
:10226000FFF742FB5A4B1B7805335A4A32F813608A
:10227000594B1A78594B33F8123003FB06F6584B7A
:102280001878FEF787F802460B4600204FF0804191
:1022900002F04CF804460D463046FEF78BF8224615
:1022A0002B46FEF795FB04460D464E4B1878FEF77D
:1022B00071F802460B4640A1D1E9000102F036F860
:1022C00002460B4620462946FEF782FBFEF7DCF865
:1022D0003E4B1B78013B01224349C95C80B2FFF7AA
:1022E000D0FAB4E70120FFF7B7FAB0E74FF4007176
:1022F0003E4800F02DFF002859D1344B1B78062BA7
:1023000012D1384B1B78012B0AD00720FFF716FBA0
:10231000462000F033FC2A4B4FF400725A6112E75A
:102320000920FFF70BFBF3E70120FFF7DDFA284B4D
:102330001B780633274A32F81360274B1A78274B4D
:1023400033F8123003FB06F6254B1878FEF722F817
:1023500002460B4600204FF0804101F0E7FF0446A3
:102360000D463046FEF726F822462B46FEF730FB98
:1023700004460D461B4B1878FEF70CF802460B4638
:102380000DA1D1E9000101F0D1FF02460B46204624
:102390002946FEF71DFBFEF777F80C4B1B78013B37
:1023A00001221149C95C80B2FFF76BFAB3E7012043
:1023B000FFF752FAAFE700BFF6285C8FC2F5F03F97
:1023C0000004014058000020000801405600002091
:1023D0005400002038000020550000200800002094
:1023E00053000020E501002000000020000C014007
:1023F00008B50A4B1B681A6912F0010F0AD0DA6897
:1024000012F0010F06D006490A7801320A706FF007
:1024100001021A61014801F07EFB08BD880200201C
:10242000B00100200000000070B5BB4B5B6913F4E5
:10243000006F5DD1B84B5B6913F4805F40F0B880EA
:10244000B54B5B6913F4005F40F00E81B24B5B69E2
:1024500013F4806F0DD0B14B1B78012B00F08181FC
:10246000AF4B1B78012B00F07C81AB4B4FF48062AB
:102470005A61A94B5B6913F4004F0DD0A74B1B7831
:10248000012B00F07C81A64B1B78012B00F077819B
:10249000A14B4FF400425A619F4B5B6913F4804F8C
:1024A0000DD09E4B1B78012B00F077819C4B1B7845
:1024B000012B00F07281984B4FF480425A614FF427
:1024C000806000F053FE4FF4006000F04FFE4FF4C8
:1024D000805000F04BFE4FF4005000F047FE4FF4E8
:1024E000804000F043FE4FF4004000F03FFE70BD1E
:1024F0004FF400618B4800F02BFE002854D18A4B2A
:102500001B78062B46D00120FFF7EEF9874B1B788E
:102510000333874A32F81360864B1A78864B33F8B8
:10252000123003FB06F6854B1878FDF733FF0246A1
:102530000B4600204FF0804101F0F8FE04460D46A6
:102540003046FDF737FF22462B46FEF741FA044698
:102550000D467B4B1878FDF71DFF02460B466CA11C
:10256000D1E9000101F0E2FE02460B462046294671
:10257000FEF72EFAFDF788FF6B4B1B78013B01221B
:102580007049C95C80B2FFF77CF9634B4FF400627D
:102590005A614FE70420FFF7D1F9462000F0EEFA28
:1025A0000220FFF759F9F0E70120FFF755F9ECE7B2
:1025B0004FF48051644800F0CBFD002850D15A4BB5
:1025C0001B78062B45D00120FFF78EF9574B1A7860
:1025D000574B33F81260574B1A78574B33F8123079
:1025E00003FB06F6554B1878FDF7D4FE02460B4662
:1025F00000204FF0804101F099FE04460D46304620
:10260000FDF7D8FE22462B46FEF7E2F904460D46BA
:102610004B4B1878FDF7BEFE02460B463CA1D1E9B4
:10262000000101F083FE02460B4620462946FEF7D4
:10263000CFF9FDF729FF3C4B1B78013B01224149B3
:10264000C95C80B2FFF71DF9334B4FF480525A61D9
:10265000F6E60120FFF772F9462000F08FFAF3E763
:102660000120FFF7F9F8EFE74FF40051364800F08A
:102670006FFD002871D12C4B1B78062B66D00120F2
:10268000FFF732F9294B1B780133294A32F81360DE
:10269000284B1A78284B33F8123003FB06F6274BE9
:1026A0001878FDF777FE02460B4600204FF0804178
:1026B00001F03CFE04460D463046FDF77BFE224607
:1026C0002B46FEF785F904460D461D4B1878FDF79D
:1026D00061FE02460B460EA1D1E9000101F026FE83
:1026E00002460B4620462946FEF772F9FDF7CCFE5E
:1026F0000D4B1B78013B01221249C95C80B2FFF7E8
:10270000C0F8054B4FF400525A619FE6AFF30080CA
:10271000F6285C8FC2F5F03F000401405200002013
:10272000E401002000080140560000205400002071
:102730003800002055000020080000205300002031
:10274000E501002000000020000C01400220FFF7FE
:10275000F5F8462000F012FAD3E70120FFF77CF8E5
:10276000CFE74FF48061144800F0F2FC18B9134B26
:1027700000221A7079E6114B01221A7075E64FF4A7
:1027800000410F4800F0E4FC18B90C4B02221A700B
:102790007EE60A4B01221A707AE64FF4804108481F
:1027A00000F0D6FC18B9074B01221A7083E6054BDE
:1027B00000221A707FE600BF00080140530000208D
:1027C000000C0140E50100207047000000B587B013
:1027D00000230293039304930593009301931548F8
:1027E000154A026047224260836040F2E732C260CD
:1027F00003614361836101F07FFA90B94FF4805324
:10280000029302A90B4801F077FB68B900230093FB
:1028100001936946074801F06BFC40B907B05DF8C9
:1028200004FBFFF79BFAE9E7FFF798FAEEE7FFF7FB
:1028300095FAF3E788020020002C014000B585B02E
:1028400003681B4A934208D0B3F1804F18D0194A4D
:10285000934221D005B05DF804FB174B9A6942F40E
:1028600000629A619B6903F400630193019B00225B
:102870001146192000F02CFB192000F039FBE9E784
:1028800003F50433DA6942F00102DA61DB6903F02F
:1028900001030293029BDDE7074BDA6942F0020273
:1028A000DA61DB6903F002030393039BD2E700BF05
:1028B000002C0140000400400010024000B587B029
:1028C000002302930393049305930368B3F1804FAD
:1028D00005D0174A934217D007B05DF804FB03F503
:1028E00004339A6942F004029A619B6903F004037D
:1028F0000093009B0123029302230393059302A9F3
:102900000C4800F017FBE7E70B4B9A6942F0040212
:102910009A619B6903F004030193019B8023029356
:1029200002230393059302A9024800F003FBD3E7B7
:1029300000040040000801400010024000B58FB0C4
:1029400000230A930B930C930D930893099301931F
:1029500002930393049305930693079321484FF042
:102960008042026040F2CF22426083606322C260F4
:1029700003618023836101F0BFF920BB4FF48053D2
:102980000A930AA9174801F0B7FAF8B9154801F0F7
:10299000DFF9F0B900230893099308A9114801F061
:1029A000A7FBC8B96023019300220292039205920B
:1029B00001A90C4801F026FA88B90A48FFF77EFF02
:1029C0000FB05DF804FBFFF7C9F9D7E7FFF7C6F9C9
:1029D000DCE7FFF7C3F9DDE7FFF7C0F9E2E7FFF750
:1029E000BDF9EAE74002002000B58FB000230A934A
:1029F0000B930C930D930893099301930293039304
:102A000004930593069307932248234A026040F2F9
:102A1000CF22426083606322C260036180238361AE
:102A200001F06AF930BB4FF480530A930AA91948A0
:102A300001F062FA08BB174801F08AF900BB0023D5
:102A40000893099308A9134801F052FBD8B96023F1
:102A50000193002302930393059304220DEB0201DB
:102A60000C4801F0CFF988B90A48FFF727FF0FB0EB
:102A70005DF804FBFFF772F9D5E7FFF76FF9DAE7C6
:102A8000FFF76CF9DBE7FFF769F9E0E7FFF766F9B5
:102A9000EAE700BFF801002000040040FFF794FEC1
:102AA0000B480C490C4A002302E0D458C4500433AC
:102AB000C4188C42F9D3094A094C002301E0136081
:102AC0000432A242FBD301F0A1FBFFF78BF9704760
:102AD0000000002094010020FC5200089401002016
:102AE000A4050020FEE7000010B504460E4B1A783E
:102AF0004FF47A73B3FBF2F30C4A1068B0FBF3F0B7
:102B000000F004FA68B90F2C01D901200AE0002274
:102B100021464FF0FF3000F0DBF9054B1C60002030
:102B200000E0012010BD00BF600000205C0000201C
:102B30006400002008B5074A136843F010031360CF
:102B4000032000F0B3F90F20FFF7CEFFFFF710FAD4
:102B5000002008BD00200240034A1168034B1B7887
:102B60000B441360704700BFD002002060000020BB
:102B7000014B1868704700BFD002002038B50446EA
:102B8000FFF7F6FF0546B4F1FF3F02D0044B1B7878
:102B90001C44FFF7EDFF401BA042FAD338BD00BF35
:102BA0006000002030B482B00022019290F824200E
:102BB000012A00F08F800346012280F824204A6811
:102BC000062A2DD80468606B02EB8202053A4FF0AA
:102BD0001F0C0CFA02FC20EA0C000D6805FA02F248
:102BE000024362630A68092A38D91C68E06802EB6C
:102BF00042021E3A4FF0070C0CFA02FC20EA0C00CD
:102C00008D6805FA02F20243E2600A68103A012A6E
:102C100034D90020002283F8242002B030BC704751
:102C20000C2A0DD80568286B02EB8202233A1F2478
:102C3000944020EA04000C68944020432863D1E7C4
:102C40000568E86A02EB8202413A1F24944020EAB8
:102C500004000C6894402043E862C3E71C682069C4
:102C600002EB42024FF0070C0CFA02FC20EA0C00C7
:102C70008D6805FA02F202432261C6E71A68164817
:102C8000824205D09A6A42F020029A620120C1E78E
:102C9000906810F4000F1BD1906840F40000906021
:102CA0000A68102A01D00020B4E70C4A12680C49C7
:102CB000A1FB0212920C02EB82025200019202E08E
:102CC000019A013A0192019A002AF9D10020A1E764
:102CD00000209FE70220A0E7002401405C000020C4
:102CE00083DE1B4338B503689A6812F0010F01D1E7
:102CF000002038BD04469A6822F001029A60FFF76E
:102D000037FF054623689B6813F0010F13D0FFF7C8
:102D10002FFF431B022BF5D923689B6813F0010F8B
:102D2000F0D0A36A43F01003A362E36A43F0010307
:102D3000E3620120DDE70020DBE7000000287BD014
:102D400070B50446836A002B4DD02046FFF7CAFFBA
:102D5000A36A13F0100369D1002867D1A26A22F494
:102D6000885222F0020242F00202A2626268E16925
:102D70000A43217B42EA4102A568B5F5807F02D073
:102D8000012D36D01D46267D012E35D0266871686E
:102D900021F46941294371602568AE6827493140B3
:102DA0001143A960A168B1F5807F01D0012902D14A
:102DB0002369013B1B052568E96A21F470010B4377
:102DC000EB62236899681E4B0B409A4225D0A36A98
:102DD00023F0120343F01003A362E36A43F00103FC
:102DE000E362012027E0C36280F82430FEF79AFEF8
:102DF000ABE74FF48075C6E731B9A169013945EAFF
:102E0000413141F40065C1E7A16A41F02001A162AE
:102E1000E16A41F00101E162B8E70023E362A36ADD
:102E200023F0030343F00103A36204E0A36A43F029
:102E30001003A362012070BD01207047FDF7E1FF80
:102E4000FE0E1FFF002808DB0901C9B200F1604037
:102E500000F5614080F80013704700F00F00090191
:102E6000C9B2014B1954704714ED00E000B500F0F1
:102E70000700C0F1070CBCF1040F28BF4FF0040C91
:102E8000031D062B0FD9C31E4FF0FF3E0EFA0CF0A8
:102E900021EA000199400EFA03FE22EA0E0241EAFD
:102EA00002005DF804FB0023EEE70000074AD36848
:102EB00023F4E0631B041B0C000200F4E0600343F6
:102EC00043F0BF6343F40033D360704700ED00E08C
:102ED00010B50446054BD868C0F30220FFF7C6FFC3
:102EE00001462046FFF7AEFF10BD00BF00ED00E039
:102EF000002807DB00F01F02400901239340024A2B
:102F000042F82030704700BF00E100E00138B0F126
:102F1000807F0BD24FF0E0235861054AF02182F800
:102F200023100020986107221A6170470120704722
:102F300000ED00E070B582B00024A446A1E07E4D13
:102F4000AB4214D00CD8A5F58015AB420FD005F5D7
:102F50007025AB420BD0A5F58015AB4210D106E031
:102F6000764DAB4203D005F58035AB4208D18B6876
:102F7000002B50D0012B49D04261082400E0CC68DE
:102F8000BEF1FF0F49D806464FEA8C0233680F2581
:102F9000954023EA050304FA02F2134333604B68B9
:102FA00013F0805F6BD0664B9A6942F001029A6120
:102FB0009B6903F001030193019B4FEA9C02951C5E
:102FC000604B53F825600CF00305AD000F23AB40B8
:102FD00026EA03065C4B984226D003F580639842AC
:102FE00000F08C8003F58063984200F0898003F53F
:102FF0008063984216D0042317E0CC680434BFE7FE
:10300000CC680834BCE7CC680C34B9E7026108240A
:10301000B6E70024B4E70424B2E7061DACF10802C9
:103020009200B3E7032300E00023AB4033430232B6
:10303000444D45F822304B6813F4801F62D0434A58
:10304000936843EA0E0393604B6813F4001F5FD04C
:103050003E4AD36843EA0E03D3604B6813F4003F43
:103060005CD03A4A536843EA0E0353604B6813F44A
:10307000803F59D0354A136843EA0E0313600CF1C0
:10308000010C0B6833FA0CF254D0012202FA0CF254
:1030900003EA020E32EA0303F1D14B68122B3FF62A
:1030A0004EAF122B3FF66CAF01A555F823F000BFD1
:1030B0006F2F00087F2F0008013000081330000830
:1030C000812F0008812F0008812F0008812F000820
:1030D000812F0008812F0008812F0008812F000810
:1030E000812F0008812F0008812F0008812F000800
:1030F000812F0008FB2F000807300008012394E708
:10310000022392E7114A936823EA0E0393609BE738
:103110000E4AD36823EA0E03D3609EE70B4A536836
:1031200023EA0E035360A1E7084A136823EA0E035B
:103130001360A4E702B070BD00002210000031103F
:10314000001002400000014000080140000401405E
:103150008368194201D001207047002070470AB1EE
:1031600001617047090401617047704708B5054B5C
:103170005B69034200D108BD024B5861FFF7F5FFC0
:10318000F9E700BF00040140034A136823F07F03FE
:10319000084303431360704700000140024A13686C
:1031A00043F08003136070470000014082B0084B79
:1031B0001B68084AA2FB03235B0A00FB03F301938D
:1031C00000BF019B5A1E0192002BF9D102B070473B
:1031D0005C000020D34D6210002800F0F18170B532
:1031E00082B00446036813F0010F2CD0994B5B6842
:1031F00003F00C03042B1DD0964B5B6803F00C030B
:10320000082B12D06368B3F5803F41D0002B55D115
:1032100003F1804303F504331A6822F480321A6004
:103220001A6822F480221A6037E08A4B5B6813F434
:10323000803FE7D0874B1B6813F4003F03D06368DF
:10324000002B00F0BF81236813F0020F75D0814B73
:103250005B6813F00C0F5FD07E4B5B6803F00C03D0
:10326000082B54D02369002B00F08A807A4B01226E
:103270001A60FFF77DFC0546764B1B6813F0020FC2
:1032800075D1FFF775FC401B0228F5D903209EE19C
:10329000704A136843F480331360636843B3FFF7E5
:1032A00067FC05466B4B1B6813F4003FCBD1FFF75F
:1032B0005FFC401B6428F5D9032088E1B3F5A02FFB
:1032C00009D0644B1A6822F480321A601A6822F41A
:1032D00080221A60E1E703F18043A3F53C331A68CA
:1032E00042F480221A601A6842F480321A60D4E7ED
:1032F000FFF73EFC0546574B1B6813F4003FA2D076
:10330000FFF736FC401B6428F5D903205FE1514BE1
:103310005B6813F4803FA5D14E4B1B6813F0020F7E
:1033200003D02369012B40F04F814A4A136823F0F0
:10333000F803616943EAC1031360236813F0080FBF
:1033400033D0A369002B5CD0434B0122C3F8802407
:10335000FFF70EFC05463F4B5B6A13F0020F21D1CD
:10336000FFF706FC401B0228F5D903202FE1394A5C
:10337000136823F0F803616943EAC1031360DCE7D3
:10338000354B00221A60FFF7F3FB0546314B1B68F3
:1033900013F0020FD1D0FFF7EBFB401B0228F5D949
:1033A000032014E10120FFF701FF236813F0040F4D
:1033B00000F09680274BDB6913F0805F34D1254BFA
:1033C000DA6942F08052DA61DB6903F080530193DD
:1033D000019B0125214B1B6813F4807F26D0E368F5
:1033E000012B3DD0002B53D103F1804303F504336F
:1033F0001A6A22F001021A621A6A22F004021A62A0
:1034000033E0154B0022C3F88024FFF7B1FB0546DB
:10341000104B5B6A13F0020FC7D0FFF7A9FB401BEC
:103420000228F5D90320D2E00025D3E70B4A136820
:1034300043F480731360FFF79BFB0646074B1B6842
:1034400013F4807FCBD1FFF793FB801B6428F5D961
:103450000320BCE000100240000042420070004027
:103460005F4A136A43F001031362E36833B3FFF763
:103470007FFB06465A4B1B6A13F0020F2FD1FFF752
:1034800077FB801B41F288339842F3D903209EE0FA
:10349000052B09D0524B1A6A22F001021A621A6AED
:1034A00022F004021A62E0E74D4B1A6A42F004026D
:1034B0001A621A6A42F001021A62D6E7FFF758FB55
:1034C0000646474B1B6A13F0020F08D0FFF750FB6C
:1034D000801B41F288339842F3D9032077E0E5B9A5
:1034E000E369002B72D03E4A526802F00C02082AAF
:1034F00056D0022B17D03B4B00221A66FFF738FB41
:103500000446374B1B6813F0007F47D0FFF730FBB2
:10351000001B0228F5D9032059E0314AD36923F072
:103520008053D361DCE72F4B00221A66FFF720FBA4
:1035300005462B4B1B6813F0007F06D0FFF718FBE6
:10354000401B0228F5D9032041E0236AB3F5803FF0
:103550001AD023494B6823F47413226A606A024329
:1035600013434B601F4B01221A66FFF701FB044611
:103570001B4B1B6813F0007F0ED1FFF7F9FA001BFD
:103580000228F5D9032022E0154A536823F40033BA
:10359000A1680B435360DCE7002018E0002016E030
:1035A000012B16D00E4B5B6803F48031226A9142E6
:1035B00011D103F47013626A93420ED1002006E029
:1035C00001207047012002E0012000E0002002B04D
:1035D00070BD0120FBE70120F9E70120F7E700BFFC
:1035E00000100240000042420F4B5B6803F00C02E7
:1035F000082A01D00D487047C3F383420C49885C08
:1036000013F4803F0BD0084B5B68C3F34043094A77
:10361000D35C064A02FB00F0B0FBF3F07047064BA8
:1036200003FB00F0704700BF0010024000127A0058
:10363000CC520008C852000800093D00002800F0E4
:10364000A08070B50D460446524B1B6803F007037B
:103650008B420BD24F4A136823F007030B431360CE
:10366000136803F007038B4240F08D80236813F04A
:10367000020F17D013F0040F04D0474A536843F4E5
:10368000E0635360236813F0080F04D0424A536884
:1036900043F460535360404A536823F0F003A16839
:1036A0000B435360236813F0010F31D06368012B83
:1036B00020D0022B25D0384A126812F0020F64D0B5
:1036C00035494A6822F0030213434B60FFF750FA72
:1036D0000646314B5B6803F00C036268B3EB820F64
:1036E00016D0FFF745FA801B41F288339842F0D993
:1036F000032045E0284A126812F4003FE0D101207F
:103700003EE0254A126812F0007FD9D1012037E04F
:10371000204B1B6803F00703AB420AD91D4A13680C
:1037200023F007032B431360136803F00703AB4236
:103730002DD1236813F0040F06D0174A536823F4E1
:10374000E063E1680B435360236813F0080F07D070
:10375000114A536823F46053216943EAC10353605B
:10376000FFF742FF0C4B5B68C3F303130B4AD35CB8
:10377000D8400B4B18600B4B1868FFF7B5F90020C9
:1037800070BD012070470120FAE70120F8E7012011
:10379000F6E700BF0020024000100240B8520008C7
:1037A0005C0000206400002070B582B0044603680D
:1037B00013F0010F36D03F4BDB6913F0805F49D126
:1037C0003C4BDA6942F08052DA61DB6903F08053E6
:1037D0000193019B0125384B1B6813F4807F3BD07C
:1037E000344B1B6A13F4407313D0626802F44072C6
:1037F0009A420ED02F4A136A23F440702F490126B3
:10380000C1F840640026C1F84064106213F0010F53
:1038100036D1284A136A23F4407361680B4313625C
:10382000002D3ED1236813F0020F06D0214A5368C1
:1038300023F44043A1680B435360236813F0100F37
:1038400034D01C4A536823F48003E1680B4353606F
:1038500000202CE00025BEE7174A136843F480736C
:103860001360FFF785F90646134B1B6813F4807F3E
:10387000B6D1FFF77DF9801B6428F5D9032016E047
:10388000FFF776F906460B4B1B6A13F0020FC0D107
:10389000FFF76EF9801B41F288339842F3D9032079
:1038A00005E0D36923F08053D361BBE7002002B069
:1038B00070BD00BF00100240007000400000424296
:1038C00030B4026A036A23F0010303624568836926
:1038D00023F073030C681C4322F002028B6813432D
:1038E0000B4A904206D0456084614A684263036295
:1038F00030BC704723F00803CA681A4322F004035F
:1039000025F440754A692A438D691543EBE700BFEA
:10391000002C014030B4036A026A22F48072026211
:103920004468C26922F073020D68154323F40073E2
:103930008A6843EA02230D4A904206D04460C5617A
:103940004A68C263036230BC704723F40063CA68EC
:1039500043EA022323F4806324F440544A6944EA8E
:1039600002148A6944EA0214E8E700BF002C01400F
:1039700030B4036A026A22F4805202624468C26967
:1039800022F4E6420D6842EA052223F400538D68D2
:1039900043EA0533074DA84206D04460C2614A6835
:1039A0000264036230BC704724F480444D6944EAE9
:1039B0008514F2E7002C014010B4036A046A24F075
:1039C00001040462846924F0F00C4CEA021223F032
:1039D0000A030B438261036210BC704710B4036A90
:1039E000046A24F010040462846924F4704C4CEAE4
:1039F000023223F0A00343EA01138261036210BC88
:103A00007047836823F070030B4343F00703836020
:103A10007047000090F83D30DBB2012B22D1022329
:103A200080F83D300368114A934210D0B3F1804FC3
:103A30000DD0A2F59432934209D002F580629342F0
:103A400005D01A6842F001021A60002070479A6897
:103A500002F00702062A07D01A6842F001021A6033
:103A6000002070470120704700207047002C014063
:103A700090F83D30DBB2012B27D1022380F83D3096
:103A80000268D36843F00103D3600368114A93428C
:103A900010D0B3F1804F0DD0A2F59432934209D0EB
:103AA00002F58062934205D01A6842F001021A6062
:103AB000002070479A6802F00702062A07D01A68A9
:103AC00042F001021A600020704701207047002078
:103AD000704700BF002C01400268D36823F0010347
:103AE000D3600368196A41F21112114208D1196AB0
:103AF00040F24442114203D11A6822F001021A60D6
:103B0000012380F83D3000207047704770477047B0
:103B100070477047704770B504460368DE681D69DA
:103B200015F0020F10D016F0020F0DD06FF0020248
:103B30001A610123037703689B6913F0030F5ED0BA
:103B4000FFF7E6FF0023237715F0040F12D016F0DD
:103B5000040F0FD023686FF004021A610223237749
:103B600023689B6913F4407F4FD02046FFF7D0FFB6
:103B70000023237715F0080F12D016F0080F0FD08E
:103B800023686FF008021A61042323772368DB6936
:103B900013F0030F40D02046FFF7BAFF002323772E
:103BA00015F0100F12D016F0100F0FD023686FF021
:103BB00010021A61082323772368DB6913F4407F1E
:103BC00031D02046FFF7A4FF0023237715F0010F23
:103BD00002D016F0010F2DD115F0800F02D016F093
:103BE000800F2FD115F0400F02D016F0400F31D1C9
:103BF00015F0200F02D016F0200F33D170BDFFF763
:103C000086FF2046FFF785FF9CE72046FFF77FFFF2
:103C10002046FFF77EFFABE72046FFF778FF204600
:103C2000FFF777FFBAE72046FFF771FF2046FFF75F
:103C300070FFC9E723686FF001021A612046FFF7A1
:103C400065FFC9E723686FF080021A61204600F023
:103C500086FAC7E723686FF040021A612046FFF733
:103C600059FFC5E723686FF020021A61204600F073
:103C700075FAC3E703681F4A90420AD0B0F1804F3B
:103C800007D0A2F59432904203D002F580629042B0
:103C900003D123F070034A681343164A90420AD0B6
:103CA000B0F1804F07D0A2F59432904203D002F5D4
:103CB0008062904203D123F44073CA68134323F017
:103CC00080034A69134303608B68C3620B68836295
:103CD000084B98420AD001234361036913F0010F96
:103CE00003D0036923F00103036170470B69036389
:103CF000F1E700BF002C014040B310B5044690F836
:103D00003D30F3B1022384F83D30214651F8040BD5
:103D1000FFF7B0FF012384F8463084F83E3084F882
:103D20003F3084F8403084F8413084F8423084F8E1
:103D3000433084F8443084F8453084F83D30002026
:103D400010BD80F83C30FEF779FDDBE701207047BD
:103D500040B310B5044690F83D30F3B1022384F827
:103D60003D30214651F8040BFFF784FF012384F80E
:103D7000463084F83E3084F83F3084F8403084F890
:103D8000413084F8423084F8433084F8443084F879
:103D9000453084F83D30002010BD80F83C30FFF7FE
:103DA000B4FEDBE70120704730B4036A026A22F0F8
:103DB000100202624468826922F4E6420D6842EA17
:103DC000052223F020038D6843EA05130C4DA84219
:103DD00006D0446082614A688263036230BC7047E7
:103DE00023F08003CD6843EA051323F0400324F455
:103DF00040644D6944EA85048D6944EA8504E8E736
:103E0000002C014038B590F83C30012B66D00446B8
:103E10000D46012380F83C300C2A5AD8DFE802F026
:103E2000075959591B595959305959594400006873
:103E3000FFF746FD2268936943F008039361226807
:103E4000936923F0040393612268936929690B4302
:103E5000936100203EE00068FFF7A6FF22689369A7
:103E600043F4006393612268936923F48063936150
:103E700022689369296943EA01239361002029E0BC
:103E80000068FFF747FD2268D36943F00803D36158
:103E90002268D36923F00403D3612268D3692969B6
:103EA0000B43D361002015E00068FFF761FD226835
:103EB000D36943F40063D3612268D36923F4806338
:103EC000D3612268D369296943EA0123D3610020C1
:103ED00000E00120002384F83C3038BD0220FCE7DC
:103EE00010B4846824F47F4C42EA03220A4342EA75
:103EF0000C02826010BC704790F83C30012B78D0E7
:103F000010B50446012380F83C30022380F83D3090
:103F10000268936823F47F4323F0770393600B6870
:103F2000602B4CD023D8402B54D011D8202B03D059
:103F30000AD80BB1102B05D119462068FFF761FD97
:103F4000002028E0012026E0302BF5D0012022E0DF
:103F5000502B0AD1CA6849680068FFF72DFD50212F
:103F60002068FFF74EFD002015E0012013E0B3F5B7
:103F7000805F3AD0B3F5005F14D0702B37D1CB6897
:103F80004A6889680068FFF7ABFF2268936843F0CE
:103F9000770393600020012384F83D30002384F8E8
:103FA0003C3010BDCB684A6889680068FFF798FF0D
:103FB0002268936843F4804393600020EBE7CA686B
:103FC00049680068FFF70AFD60212068FFF719FDC6
:103FD0000020E0E7CA6849680068FFF7EDFC40216F
:103FE0002068FFF70EFD0020D5E70020D3E7012071
:103FF000D1E70220704701F01F014FF0010C0CFACD
:1040000001FC036A23EA0C030362036A8A40134338
:104010000362704710B50446084651BB94F83E3021
:10402000DBB2013B18BF0123002B5BD1002839D143
:10403000022384F83E30012201462068FFF7DBFFAF
:1040400023682A4A93423DD02368284A93423ED0AF
:10405000B3F1804F3BD0A2F59432934237D002F5B2
:104060008062934233D01A6842F001021A60002045
:1040700039E0042908D008290DD094F84130DBB28A
:10408000013B18BF0123CFE794F83F30DBB2013B7F
:1040900018BF0123C8E794F84030DBB2013B18BFDA
:1040A0000123C1E7042805D0082807D0022384F89B
:1040B0004130C0E7022384F83F30BCE7022384F894
:1040C0004030B8E75A6C42F400425A64BCE79A6840
:1040D00002F00702062A07D01A6842F001021A60AD
:1040E000002000E0012010BD0020FCE7002C014072
:1040F00090F83C20012A2CD010B40346012280F80D
:104100003C20022280F83D2002685068946820F02C
:10411000700C086840EA0C0050601A680E48824231
:104120000AD0B2F1804F07D0A0F59430824203D07C
:1041300000F58060824204D124F080044968214364
:104140009160012283F83D20002083F83C0010BCE0
:1041500070470220704700BF002C01407047704735
:1041600070B5860747D0541E002A3ED00346CAB217
:1041700001E0013C39D303F8012B9D07F9D1032C51
:104180002CD9CDB205EB05250F2C1A4605EB0545BC
:1041900034D9A4F1100C2CF00F0603F1100EB64424
:1041A0004FEA1C1CC2E90055C2E9025510327245A3
:1041B000F8D10CF1010214F00C0F03EB021204F021
:1041C0000F0C13D0ACF1040323F0030304331344A6
:1041D00042F8045B9342FBD10CF003042CB1C9B24A
:1041E0001C4403F8011BA342FBD170BD6446134677
:1041F000002CF4D1F9E703461446C0E7A446E1E7F2
:10420000014B1868704700BF6800002070B50F4B65
:104210000F4DAB42A3EB050607D00024B61055F8AE
:10422000043B01349847A642F9D801F039F8094D0A
:10423000094B5E1BAB424FEAA60606D0002455F898
:10424000043B01349847A642F9D870BDF0520008EB
:10425000F0520008F0520008F8520008704700BF02
:10426000704700BF024B13B1024800F005B8704719
:104270000000000085420008002301461A46184647
:1042800000F014B838B5074D074C2C1BA41005D00E
:10429000013C55F8043D9847002CF9D1BDE8384061
:1042A00001F004B8FC520008F85200082DE9F84368
:1042B0001B4D0646286898460F469146FFF7CEFFED
:1042C000184B1C681CB3286865681F2D22DC4EB98A
:1042D0006B1C0235636044F82570FFF7C1FF0020B6
:1042E000BDE8F883012304EB8501C1F88890D4F878
:1042F0008821AB401A43022EC4F88821C1F80881F6
:10430000E6D1D4F88C211A43C4F88C21E0E7064C9E
:104310001C60D8E7FFF7A4FF4FF0FF30E0E700BFD5
:104320009001002010040020140400202DE9F8431F
:1043300014461D468046894600F06EF82246064621
:104340000F462B4620462946FCF7DCFD78B90022B3
:10435000002340464946FCF7A3FDD8B100220023C4
:1043600020462946FCF79CFD28B10026254F304603
:104370003946BDE8F8832046294600F045F8002874
:10438000F5D02046294600220023FCF793FD0028A3
:10439000EDD02CE03046394600F036F8A0B10022CE
:1043A000002330463946FCF77BFD0028DFD040462D
:1043B000494600F029F80028D9D02046294600F0C7
:1043C00023F80028D3D012E04046494600F01CF8FC
:1043D0000028E4D02046294600F016F80028DED058
:1043E00032463B4630463946FCF78CFD20B9FFF794
:1043F00007FF22230360BAE7FFF702FF21230360D0
:10440000B5E700BF0000F03F41F0004000F580102C
:10441000C00F7047000000002DE9F04F23F0004767
:104420000D4657EA020192469B46044693B010D1CE
:104430002319814885F4002252419942904121D2AA
:1044400052465B4620462946FBF768FE13B0BDE89E
:10445000F08F9946794B25F0004199422E46009005
:10446000029114D9009B06F1404606F580161E43C2
:10447000E6D153467049DB188BF4002252419E422C
:104480009141DDD300206E4913B0BDE8F08F14D008
:104490009F42E7D8029B00F0A580002E15DB002A82
:1044A00040F0B88066498F4240F0CE83B9F1000FEA
:1044B000C0F2B58420462946C8E70028C0D18F4203
:1044C000BED800F0F283029BE7E75E498F4200F21C
:1044D000B5835D498F423DD8002A40F0C483B9F1CD
:1044E000804F30D0904620462946049300F038FD96
:1044F000009A049B002A4DD0F20F013A52EA080CB0
:1045000000F09680002408F1FF3858EA020814BF32
:104510004B4D4E4DB7F1844FCDE9064540F29A80A0
:104520004B4B029A9F42484B40F2F6839A4200F26C
:104530008784B9F1000FC0F28784002013B0BDE872
:10454000F04F00F0B3BD22462B4620462946FCF72B
:104550003FFA7BE73915A1F2FF31142940F3468475
:10456000C1F1340122FA01F000FA01F1914200F0A8
:10457000AF84002A40F07783B9F1804F0493E2D0F2
:104580002046294600F0ECFC009A049B002A4FD1FB
:10459000DDF800802A4A26F0404C944502D0029A69
:1045A000002AA9D1B9F1000F05DA02460B46002016
:1045B0002349FCF737FB002EBFF648AF029B03F1FF
:1045C000404B0BF5801B5BEA080B40F03084024641
:1045D0000B4610461946FBF79FFD02460B46FCF7BB
:1045E00021FB33E7002A7FF43DAF029B009A03F1E1
:1045F000404303F5801313433FF444AF124B029A38
:104600009A4240F2E683B9F1000FC0F2508450465E
:1046100059461BE74FF0000820462946049300F056
:104620009FFC009A049B002AB4D0F20F013A69E77C
:1046300022462B46CDE700BF0000F0FF0000F07FD0
:104640000000F03FFFFF3F43FFFFEF3F0000F0BFE0
:104650000000F043D04A3240002A40F02A83CF4B7A
:104660000022FCF7B5F96FF034040B461A15A2F2DC
:10467000FF321519CA4AC3F3130343F07F54934220
:104680000B9544F4401407DDC64A934240F3E2839D
:1046900001350B95A4F58014002200230026002587
:1046A000C14FCDE90823CDE90467CDE91023DDE949
:1046B000042321468046FBF72FFDDDE90423A146B4
:1046C00006460F4640462146CDE90C89FBF726FDFC
:1046D00002460B460020B449FCF7A4FA02460B46FA
:1046E00030463946CDE90E23FCF772F980468946FB
:1046F000641044F0005404F5002359190D464A464D
:10470000414600230020CDE90012009304460246F2
:104710002B46CDE90289DDE9008940464946FCF790
:1047200057F902460B4630463946FBF7F5FCDDE902
:10473000042306460F4620462946FBF7EDFC0246B9
:104740000B46DDE90C01FBF7E7FC42464B46FCF764
:104750003FF902460B4630463946FBF7DDFCDDE902
:104760000E23FCF735F9DDE90245CDE904012246C7
:104770002B4620462946FCF72BF975A3D3E90023E5
:1047800004460D46FCF724F973A3D3E90023FBF795
:10479000C5FC22462B46FCF71BF971A3D3E9002385
:1047A000FBF7BCFC22462B46FCF712F96EA3D3E9BB
:1047B0000023FBF7B3FC22462B46FCF709F96CA358
:1047C000D3E90023FBF7AAFC22462B46FCF700F9AD
:1047D00069A3D3E90023FBF7A1FC224606460F4656
:1047E0002B4620462946FCF7F3F802460B46304696
:1047F0003946FCF7EDF804460D46DDE90201424674
:104800004B46FBF78BFCDDE90423FCF7E1F822467D
:104810002B46FBF783FC424606460F464B46404676
:104820004946FCF7D5F80022604B04460D46FBF7DD
:1048300075FC32463B46CDE90C67FBF76FFC002662
:104840000F4632463B4640464946FCF7C1F8002237
:104850008046894630463946544BFBF75DFC22467C
:104860002B46FBF759FC02460B46DDE90C01FBF732
:1048700053FCDDE90223FCF7ABF8324604460D4653
:10488000DDE904013B46FCF7A3F802460B4620464F
:104890002946FBF743FC06460F46002432463B46BA
:1048A00040464946FBF73AFC35A3D3E900232046AE
:1048B0000D46FCF78DF842464B4680468946204619
:1048C0002946FBF729FC02460B4630463946FBF7E2
:1048D00023FC2DA3D3E90023FCF77AF802460B460C
:1048E0002046294614461D4629A3D3E90023FCF798
:1048F0006FF802460B4620462946FBF70FFCDDE920
:104900001023FBF70BFC04460B980D46FBF752FDFA
:1049100006460F4622462B4640464946CDE90289C7
:10492000FBF7FCFBDDE90823FBF7F8FB32463B46CF
:10493000FBF7F4FB002032463B4680468946FBF7F6
:10494000EBFBDDE90823FBF7E7FBDDE902232FE0C2
:10495000EF4E454A287ECA3F65DBC9934A86CD3F64
:1049600001411DA96074D13F4D268F515555D53F4A
:10497000FFAB6FDBB66DDB3F033333333333E33FE2
:10498000000000E009C7EE3FFD033ADC09C7EE3F37
:10499000F5015B14E02F3EBE0000F07F00004043B5
:1049A0008E98030079B60B000000F03F000008402D
:1049B000FBF7B2FB02460B4620462946FBF7ACFB51
:1049C0000023CDE900AB0093DDE90067CDE90201EA
:1049D00032463B4650465946FBF79EFB42464B4605
:1049E000FBF7F6FF524604460D46DDE902015B4641
:1049F000FBF7EEFF02460B4620462946FBF78EFBEF
:104A000004460D4632463B4640464946CDE90245FE
:104A1000FBF7DEFF06460F46204629463B46324658
:104A2000FBF77CFBB64B044699420D46884640F3A3
:104A30001C8101F13F4303F5E003034340F01B8277
:104A40009DA3D3E90023DDE90201FBF767FB0246E2
:104A50000B462046294614461D4632463B46FBF788
:104A60005BFB02460B4620462946FCF741FA00282C
:104A700040F001824FF4007300204344C3F30A5214
:104A8000A04CA2F2FF321441C3F3130AC2F1140284
:104A900004EA03014AF4801A0B464AFA02FAB8F112
:104AA000000F024639463046B8BFCAF1000AFBF78C
:104AB00033FB06460F46DDE9020132463B46FBF773
:104AC0002DFB0D464FEA0A5B00247DA3D3E90023AA
:104AD00020462946FBF77CFF3246804689463B4606
:104AE00020462946FBF718FB02460B46DDE902018A
:104AF000FBF712FB74A3D3E90023FBF769FF02461F
:104B00000B462046294614461D4671A3D3E90023CF
:104B1000FBF75EFF02460B4620462946FBF7FEFAEE
:104B200006460F4632463B4640464946FBF7F6FAF4
:104B300042464B4604460D46FBF7EEFA02460B464C
:104B400030463946FBF7E8FA2246804689462B462E
:104B500020462946FBF73CFF5FA3D3E90023064626
:104B60000F46FBF735FF5EA3D3E90023FBF7D4FA2A
:104B700032463B46FBF72CFF5BA3D3E90023FBF750
:104B8000CDFA32463B46FBF723FF59A3D3E9002376
:104B9000FBF7C2FA32463B46FBF71AFF56A3D3E9AE
:104BA0000023FBF7BBFA32463B46FBF711FF0246F8
:104BB0000B4620462946FBF7AFFA06460F4632461B
:104BC0003B4620462946FBF703FF02460B4630468C
:104BD000394616461F4600224FF08043FBF79CFAE9
:104BE00002460B4630463946FCF71CF8424606465C
:104BF0000F464B4620462946FBF7EAFE42464B4607
:104C0000FBF78CFA02460B4630463946FBF784FA2E
:104C100022462B46FBF780FA02460B4600203A4913
:104C2000FBF77AFA0C465C44B4F5801FC0F22D8184
:104C30002146DDE90623FBF7CBFE07E44FF002082F
:104C4000002A7FF4E9AC4EE4B9F1804F3FF47BAC2D
:104C50002E4989457FF446AC2046294613B0BDE86D
:104C6000F04F00F02FBA04938AE4DFF8A4C021F0DB
:104C70000043634540F2CB80264B0B4403430AD1EB
:104C800032463B46FBF748FADDE90223FCF726F9FA
:104C900000283FF4EFAEDDE9060100220023FCF717
:104CA00009F9003818BF012048E4002A7FF4C8AB96
:104CB000A4E40024DAE400BFFE822B654715973C8C
:104CC00000000000432EE63FEF39FAFE422EE63F99
:104CD000396CA80C615C20BED0A4BE726937663EF8
:104CE000F16BD2C541BDBB3E2CDE25AF6A56113FEC
:104CF00093BDBE166CC1663F3E5555555555C53FD3
:104D0000FFFF8F400000F0FF0000F03F0000E03F99
:104D1000FFCB904000346F3F9A42C0F0BA80029AB5
:104D20008B4B9A424FF0000200F2C580884BFBF794
:104D3000F3F97BA3D3E9002304460D46FBF748FEB5
:104D400079A3D3E900238046894620462946FBF70C
:104D50003FFE0022CDE900017E4B20462946FBF7AD
:104D600037FE02460B4672A1D1E90001FBF7D4F9E8
:104D700022462B46FBF72CFE02460B4600207649C6
:104D8000FBF7CAF922462B4606460F46204629461F
:104D9000FBF71EFE02460B4630463946FBF718FE6F
:104DA00065A3D3E90023FBF713FE02460B46DDE9BA
:104DB0000001FBF7B1F904460D464046494622463C
:104DC0002B46FBF7ABF9002042464B46804689460E
:104DD000EEE5B9F1000F4FF000004FF00001BFF613
:104DE00035AB50460BF10041FFF730BB002A7FF492
:104DF0003AAFC1F1140147FA01F000FA01F1B942EA
:104E00006DD053498F423FF451ABFFF768BB524A14
:104E100093427AD8DDE900239346924654E622462F
:104E20002B4600204A49FBF7FDFEFFF70FBBB8F108
:104E3000010F7FF40BAB01F100431946FFF706BBEE
:104E4000B9F1000F7FF779AB002013B0BDE8F04F48
:104E500000F032B90022414B4FF48025CDE9042304
:104E600037A3D3E90023CDE9082337A3D3E90023EF
:104E7000CDE910231BE40022DDE906010023FCF745
:104E800019F8003818BF0120DFE7524600F06CF82F
:104E9000CFE60022DDE906010023FCF70BF800381D
:104EA00018BF0120B9F1000FBFF648ABCDE70020D5
:104EB0000021FFF7CBBA0023DDE90601FBF7FAFF7B
:104EC000003818BF0120B9F1000FBEDCFFF736BB78
:104ED0009AB100F00100C0F10208FFF79DBB1C4A27
:104EE00097423FF4E3AAB9F1804F3FF42CAB00F0B6
:104EF0000100C0F10208FFF7F6BAB9F1804F3FF4A4
:104F000022AB4FF00208FFF7EEBA4FF480121B15E8
:104F1000A3F2FE3342FA03F3AEE500BFAFF3008025
:104F2000000000604715F73F44DF5DF80BAE543ECC
:104F3000555555555555D53FFE822B654715F73FBD
:104F40000000004003B8E23F06D0CF43EBFD4C3EEB
:104F50000000F03F0000D03F0000E03F0000F83FBD
:104F600021F00043194670472DE9F0411646C1F380
:104F70000A52074688460B466ABB21F000430343AA
:104F800027D0334B0022FBF723FD324B07469E42CE
:104F900088463CDB0B46C1F30A52363A4CF250319C
:104FA0008E4221DC164440F2FE7296421CDC002E3A
:104FB00026DC16F1350F31DB23F0FF4121F4E0014F
:104FC000363641EA0655002238462946224BFBF781
:104FD000FFFCBDE8F08140F2FF7C6245DED1024675
:104FE000FBF79CF8BDE8F081454615A3D3E9002303
:104FF00063F31E0529461948FBF7EAFCBDE8F0817A
:105000006FF31E53384643EA0651BDE8F0810EA304
:10501000D3E90023FBF7DCFCBDE8F08108F0004495
:1050200044F0D27141F4B73107A3D3E900230C480F
:1050300041F01F01FBF7CCFCCBE700BFAFF30080D2
:105040009C7500883CE4377E59F3F8C21F6EA501B9
:1050500000005043B03CFFFF0000903C9C7500886E
:1050600059F3F8C2D0B506460F461446FFF7C8F804
:105070000346394630461C60D0BD00BF00B583B042
:1050800080B1104603F10041CDE9000110461946F8
:10509000DDE90023FBF79CFC222203B05DF804EB62
:1050A000FFF7E0BF10461946EEE700BF00224FF0C1
:1050B0008053FFF7E3BF00BF00224FF0E043FFF74C
:1050C000DDBF00BF2DE9F84F724D06468D430F46F8
:1050D00000F0A48000290C460246034656DD081560
:1050E00000F0C780C4F31302C107A0F2FF3742F4F7
:1050F000801203D4D90F01EB42025B000026162474
:105100004FF40011B446520002EBD3727F105B00E3
:105110000CEB010090424FEAD3754FEA430303DCE6
:1051200000EB010C121A0E44013C05EB42024FEA5F
:105130005101EDD120254FF00040A0460AE03CD0BF
:10514000510001EBD371013D0A464FEA43034FEA98
:1051500050003ED0944508EB000EF0DABEF1000F8F
:105160000EEB00080CDBE146A2EB0C01CC469E45A1
:1051700088BF01F1FF314900A3EB0E030444E0E7CF
:10518000B8F1000FEFDB0CF10109EDE721F000456C
:1051900005433DD0002964D1DA0A153C5B05002A9D
:1051A000FAD0D60220461946144663D520254FF082
:1051B000FF32E940801A0C4394E79E4502D94FEA3A
:1051C0004C01BEE7BEF1000F0EEB000822DB002110
:1051D000D2E7194312D0DFF8C0A0DFF8C0B0DAE997
:1051E0000001DBE90023FAF797FFDAE900890246BC
:1051F0000B4640464946FBF767FEC8B96508731081
:1052000003F17F5303F5001303EB075145EAC67022
:10521000BDE8F88FB8F1000FB5DAD8E702460B46C3
:10522000FBF7D6FB32463B46FAF778FFBDE8F88F2E
:10523000B4F1FF3FDAE90001DBE9002326D0DAE927
:105240000089FAF76BFF02460B4640464946FBF7DA
:1052500031FEE8B1A31C04F1020508BF01366D0858
:10526000CDE70B46FAF758FF02460B46FBF7DAFC90
:10527000CEE7314600236400E5021A4603F101033C
:10528000F9D5C3F1200501FA03F392E70136B6E739
:105290000134B3E70000F07FE8520008E052000854
:1052A000F8B500BFF8BC08BC9E467047F8B500BF13
:0852B000F8BC08BC9E467047E3
:1052B80000000000000000000102030406070809BE
:1052C8000102000002030405060708090A0B0C0D79
:1052D8000E0F10100000000059F3F8C21F6EA50150
:0852E800000000000000F03F8F
:0852F00065420008990F000857
:0452F800710F00082A
:1052FC0032281E140A0000000000403F713D4A3F56
:10530C003D0A573F0AD7633FD7A3703F0000803F49
:10531C0014AE873F295C8F3FEC51983FAE47A13FBD
:10532C00713DAA3FE17AB43FC400DC00F7000601EE
:10533C0026014A015D018801B801EE010B024B0206
:10534C0093020101030501001E0000000024F4007B
:10535C0001000000100000007000002000000000A0
:10536C0000000000D40200203C030020A403002015
:10537C000000000000000000000000000000000021
:10538C000000000000000000000000000000000011
:10539C000000000000000000000000000000000001
:1053AC0000000000000000000000000000000000F1
:1053BC0000000000000000000000000000000000E1
:1053CC0000000000000000000000000000000000D1
:1053DC0000000000000000000000000000000000C1
:1053EC0000000000000000000000000000000000B1
:1053FC0000000000000000000100000000000000A0
:10540C000E33CDAB34126DE6ECDE05000B00000064
:10541C000000000000000000000000000000000080
:10542C000000000000000000000000000000000070
:10543C000000000000000000000000000000000060
:10544C000000000000000000000000000000000050
:10545C000000000000000000000000000000000040
:10546C000000000000000000000000000000000030
:10547C000000000000000000000000000000000020
:04548C000C040020EC
:0400000508002A9D28
:00000001FF
